{
    "contractName": "Staking_Dapp",
    "abi": [
        {
            "inputs": [
                {
                    "internalType": "contract Dummy_Token",
                    "name": "_dummyToken",
                    "type": "address"
                },
                {
                    "internalType": "contract Tether_Token",
                    "name": "_tetherToken",
                    "type": "address"
                }
            ],
            "stateMutability": "nonpayable",
            "type": "constructor"
        },
        {
            "inputs": [],
            "name": "dummy_token",
            "outputs": [
                {
                    "internalType": "contract Dummy_Token",
                    "name": "",
                    "type": "address"
                }
            ],
            "stateMutability": "view",
            "type": "function"
        },
        {
            "inputs": [
                {
                    "internalType": "address",
                    "name": "",
                    "type": "address"
                }
            ],
            "name": "hasstaked",
            "outputs": [
                {
                    "internalType": "bool",
                    "name": "",
                    "type": "bool"
                }
            ],
            "stateMutability": "view",
            "type": "function"
        },
        {
            "inputs": [
                {
                    "internalType": "address",
                    "name": "",
                    "type": "address"
                }
            ],
            "name": "isstaking",
            "outputs": [
                {
                    "internalType": "bool",
                    "name": "",
                    "type": "bool"
                }
            ],
            "stateMutability": "view",
            "type": "function"
        },
        {
            "inputs": [],
            "name": "issuedummy",
            "outputs": [],
            "stateMutability": "nonpayable",
            "type": "function"
        },
        {
            "inputs": [],
            "name": "name",
            "outputs": [
                {
                    "internalType": "string",
                    "name": "",
                    "type": "string"
                }
            ],
            "stateMutability": "view",
            "type": "function"
        },
        {
            "inputs": [],
            "name": "owner",
            "outputs": [
                {
                    "internalType": "address",
                    "name": "",
                    "type": "address"
                }
            ],
            "stateMutability": "view",
            "type": "function"
        },
        {
            "inputs": [
                {
                    "internalType": "uint256",
                    "name": "_amount",
                    "type": "uint256"
                }
            ],
            "name": "stakeTokens",
            "outputs": [],
            "stateMutability": "nonpayable",
            "type": "function"
        },
        {
            "inputs": [
                {
                    "internalType": "uint256",
                    "name": "",
                    "type": "uint256"
                }
            ],
            "name": "stakers",
            "outputs": [
                {
                    "internalType": "address",
                    "name": "",
                    "type": "address"
                }
            ],
            "stateMutability": "view",
            "type": "function"
        },
        {
            "inputs": [
                {
                    "internalType": "address",
                    "name": "",
                    "type": "address"
                }
            ],
            "name": "stakingBalance",
            "outputs": [
                {
                    "internalType": "uint256",
                    "name": "",
                    "type": "uint256"
                }
            ],
            "stateMutability": "view",
            "type": "function"
        },
        {
            "inputs": [],
            "name": "tether_token",
            "outputs": [
                {
                    "internalType": "contract Tether_Token",
                    "name": "",
                    "type": "address"
                }
            ],
            "stateMutability": "view",
            "type": "function"
        },
        {
            "inputs": [],
            "name": "unstakeTokens",
            "outputs": [],
            "stateMutability": "nonpayable",
            "type": "function"
        }
    ],
    "bytecode": "60c0604052600c60809081526b05374616b696e6720446170760a41b60a05260009061002b9082610137565b5034801561003857600080fd5b50604051610a37380380610a378339810160408190526100579161020e565b600280546001600160a01b039384166001600160a01b0319918216179091556003805492909316918116919091179091556001805490911633179055610248565b634e487b7160e01b600052604160045260246000fd5b600181811c908216806100c257607f821691505b6020821081036100e257634e487b7160e01b600052602260045260246000fd5b50919050565b601f82111561013257600081815260208120601f850160051c8101602086101561010f5750805b601f850160051c820191505b8181101561012e5782815560010161011b565b5050505b505050565b81516001600160401b0381111561015057610150610098565b6101648161015e84546100ae565b846100e8565b602080601f83116001811461019957600084156101815750858301515b600019600386901b1c1916600185901b17855561012e565b600085815260208120601f198616915b828110156101c8578886015182559484019460019091019084016101a9565b50858210156101e65787850151600019600388901b60f8161c191681555b5050505050600190811b01905550565b6001600160a01b038116811461020b57600080fd5b50565b6000806040838503121561022157600080fd5b825161022c816101f6565b602084015190925061023d816101f6565b809150509250929050565b6107e0806102576000396000f3fe608060405234801561001057600080fd5b50600436106100a95760003560e01c80638da5cb5b116100715780638da5cb5b1461014257806390332cd714610155578063a5ce413b14610188578063af3fb4b114610190578063f9075fc6146101b3578063fd5e6dd1146101c657600080fd5b806306fdde03146100ae5780633d9f37cc146100cc57806345bc78ab146100d65780637547c7a31461010457806389c95e9814610117575b600080fd5b6100b66101d9565b6040516100c39190610659565b60405180910390f35b6100d4610267565b005b6100f66100e43660046106a7565b60056020526000908152604090205481565b6040519081526020016100c3565b6100d46101123660046106d7565b6103ba565b60035461012a906001600160a01b031681565b6040516001600160a01b0390911681526020016100c3565b60015461012a906001600160a01b031681565b6101786101633660046106a7565b60066020526000908152604090205460ff1681565b60405190151581526020016100c3565b6100d4610535565b61017861019e3660046106a7565b60076020526000908152604090205460ff1681565b60025461012a906001600160a01b031681565b61012a6101d43660046106d7565b61062f565b600080546101e6906106f0565b80601f0160208091040260200160405190810160405280929190818152602001828054610212906106f0565b801561025f5780601f106102345761010080835404028352916020019161025f565b820191906000526020600020905b81548152906001019060200180831161024257829003601f168201915b505050505081565b6001546001600160a01b031633146102d95760405162461bcd60e51b815260206004820152602a60248201527f63616c6c6572206d75737420626520746865206f776e657220666f72207468696044820152693990333ab731ba34b7b760b11b60648201526084015b60405180910390fd5b60005b6004548110156103b7576000600482815481106102fb576102fb61072a565b60009182526020808320909101546001600160a01b0316808352600590915260409091205490915080156103a25760025460405163a9059cbb60e01b81526001600160a01b038481166004830152602482018490529091169063a9059cbb906044016020604051808303816000875af115801561037c573d6000803e3d6000fd5b505050506040513d601f19601f820116820180604052508101906103a09190610740565b505b505080806103af90610778565b9150506102dc565b50565b600081116104035760405162461bcd60e51b8152602060048201526016602482015275616d6f756e742063616e206e6f74206265207a65726f60501b60448201526064016102d0565b6003546040516323b872dd60e01b8152336004820152306024820152604481018390526001600160a01b03909116906323b872dd906064016020604051808303816000875af115801561045a573d6000803e3d6000fd5b505050506040513d601f19601f8201168201806040525081019061047e9190610740565b503360009081526005602052604090205461049a908290610791565b3360009081526005602090815260408083209390935560069052205460ff1661050057600480546001810182556000919091527f8a35acfbc15ff81a39ae7d344fd709f28e8600b4aa8c65c6b64bfe7fe36bd19b0180546001600160a01b031916331790555b503360009081526007602090815260408083208054600160ff1991821681179092556006909352922080549091169091179055565b33600090815260056020526040902054806105925760405162461bcd60e51b815260206004820152601760248201527f7374616b696e672062616c616e6365206973207a65726f00000000000000000060448201526064016102d0565b60035460405163a9059cbb60e01b8152336004820152602481018390526001600160a01b039091169063a9059cbb906044016020604051808303816000875af11580156105e3573d6000803e3d6000fd5b505050506040513d601f19601f820116820180604052508101906106079190610740565b505033600090815260056020908152604080832083905560079091529020805460ff19169055565b6004818154811061063f57600080fd5b6000918252602090912001546001600160a01b0316905081565b600060208083528351808285015260005b818110156106865785810183015185820160400152820161066a565b506000604082860101526040601f19601f8301168501019250505092915050565b6000602082840312156106b957600080fd5b81356001600160a01b03811681146106d057600080fd5b9392505050565b6000602082840312156106e957600080fd5b5035919050565b600181811c9082168061070457607f821691505b60208210810361072457634e487b7160e01b600052602260045260246000fd5b50919050565b634e487b7160e01b600052603260045260246000fd5b60006020828403121561075257600080fd5b815180151581146106d057600080fd5b634e487b7160e01b600052601160045260246000fd5b60006001820161078a5761078a610762565b5060010190565b808201808211156107a4576107a4610762565b9291505056fea2646970667358221220cf5f11db18be925e3c61b9b96fcf433998e77ecbe11f05e23a928a56f12d000164736f6c63430008130033",
    "sourcePath": "c:/Users/maxim/staking_dapp/src/contracts/Staking_Dapp.sol",
    "compiler": {
        "name": "solc",
        "version": "0.8.19+commit.7dd6d404"
    },
    "functionHashes": {
        "dummy_token()": "f9075fc6",
        "hasstaked(address)": "90332cd7",
        "isstaking(address)": "af3fb4b1",
        "issuedummy()": "3d9f37cc",
        "name()": "06fdde03",
        "owner()": "8da5cb5b",
        "stakeTokens(uint256)": "7547c7a3",
        "stakers(uint256)": "fd5e6dd1",
        "stakingBalance(address)": "45bc78ab",
        "tether_token()": "89c95e98",
        "unstakeTokens()": "a5ce413b"
    },
    "gasEstimates": {
        "creation": {
            "codeDepositCost": "403200",
            "executionCost": "infinite",
            "totalCost": "infinite"
        },
        "external": {
            "dummy_token()": "2425",
            "hasstaked(address)": "2518",
            "isstaking(address)": "2562",
            "issuedummy()": "infinite",
            "name()": "infinite",
            "owner()": "2337",
            "stakeTokens(uint256)": "infinite",
            "stakers(uint256)": "4724",
            "stakingBalance(address)": "2529",
            "tether_token()": "2426",
            "unstakeTokens()": "infinite"
        }
    }
}