{
    "contractName": "Tether_Token",
    "abi": [
        {
            "inputs": [],
            "stateMutability": "nonpayable",
            "type": "constructor"
        },
        {
            "anonymous": false,
            "inputs": [
                {
                    "indexed": true,
                    "internalType": "address",
                    "name": "_owner",
                    "type": "address"
                },
                {
                    "indexed": true,
                    "internalType": "address",
                    "name": "_spender",
                    "type": "address"
                },
                {
                    "indexed": false,
                    "internalType": "uint256",
                    "name": "_value",
                    "type": "uint256"
                }
            ],
            "name": "Approve",
            "type": "event"
        },
        {
            "anonymous": false,
            "inputs": [
                {
                    "indexed": true,
                    "internalType": "address",
                    "name": "_from",
                    "type": "address"
                },
                {
                    "indexed": true,
                    "internalType": "address",
                    "name": "_to",
                    "type": "address"
                },
                {
                    "indexed": false,
                    "internalType": "uint256",
                    "name": "_value",
                    "type": "uint256"
                }
            ],
            "name": "Transfer",
            "type": "event"
        },
        {
            "inputs": [
                {
                    "internalType": "address",
                    "name": "",
                    "type": "address"
                },
                {
                    "internalType": "address",
                    "name": "",
                    "type": "address"
                }
            ],
            "name": "allowance",
            "outputs": [
                {
                    "internalType": "uint256",
                    "name": "",
                    "type": "uint256"
                }
            ],
            "stateMutability": "view",
            "type": "function"
        },
        {
            "inputs": [
                {
                    "internalType": "address",
                    "name": "_spender",
                    "type": "address"
                },
                {
                    "internalType": "uint256",
                    "name": "_value",
                    "type": "uint256"
                }
            ],
            "name": "approve",
            "outputs": [
                {
                    "internalType": "bool",
                    "name": "success",
                    "type": "bool"
                }
            ],
            "stateMutability": "nonpayable",
            "type": "function"
        },
        {
            "inputs": [
                {
                    "internalType": "address",
                    "name": "",
                    "type": "address"
                }
            ],
            "name": "balance",
            "outputs": [
                {
                    "internalType": "uint256",
                    "name": "",
                    "type": "uint256"
                }
            ],
            "stateMutability": "view",
            "type": "function"
        },
        {
            "inputs": [],
            "name": "decimal",
            "outputs": [
                {
                    "internalType": "uint256",
                    "name": "",
                    "type": "uint256"
                }
            ],
            "stateMutability": "view",
            "type": "function"
        },
        {
            "inputs": [],
            "name": "name",
            "outputs": [
                {
                    "internalType": "string",
                    "name": "",
                    "type": "string"
                }
            ],
            "stateMutability": "view",
            "type": "function"
        },
        {
            "inputs": [],
            "name": "symbol",
            "outputs": [
                {
                    "internalType": "string",
                    "name": "",
                    "type": "string"
                }
            ],
            "stateMutability": "view",
            "type": "function"
        },
        {
            "inputs": [],
            "name": "totalsupply",
            "outputs": [
                {
                    "internalType": "uint256",
                    "name": "",
                    "type": "uint256"
                }
            ],
            "stateMutability": "view",
            "type": "function"
        },
        {
            "inputs": [
                {
                    "internalType": "address",
                    "name": "_to",
                    "type": "address"
                },
                {
                    "internalType": "uint256",
                    "name": "_value",
                    "type": "uint256"
                }
            ],
            "name": "transfer",
            "outputs": [
                {
                    "internalType": "bool",
                    "name": "success",
                    "type": "bool"
                }
            ],
            "stateMutability": "nonpayable",
            "type": "function"
        },
        {
            "inputs": [
                {
                    "internalType": "address",
                    "name": "_from",
                    "type": "address"
                },
                {
                    "internalType": "address",
                    "name": "_to",
                    "type": "address"
                },
                {
                    "internalType": "uint256",
                    "name": "_value",
                    "type": "uint256"
                }
            ],
            "name": "transferFrom",
            "outputs": [
                {
                    "internalType": "bool",
                    "name": "success",
                    "type": "bool"
                }
            ],
            "stateMutability": "nonpayable",
            "type": "function"
        }
    ],
    "bytecode": "60c06040526012608090815271323ab6b6bc902a32ba3432b9103a37b5b2b760711b60a0526000906100319082610134565b506040805180820190915260068152652a32ba3432b960d11b602082015260019061005c9082610134565b5069d3c21bcecceda1000000600255601260035534801561007c57600080fd5b50600254336000908152600460205260409020556101f3565b634e487b7160e01b600052604160045260246000fd5b600181811c908216806100bf57607f821691505b6020821081036100df57634e487b7160e01b600052602260045260246000fd5b50919050565b601f82111561012f57600081815260208120601f850160051c8101602086101561010c5750805b601f850160051c820191505b8181101561012b57828155600101610118565b5050505b505050565b81516001600160401b0381111561014d5761014d610095565b6101618161015b84546100ab565b846100e5565b602080601f831160018114610196576000841561017e5750858301515b600019600386901b1c1916600185901b17855561012b565b600085815260208120601f198616915b828110156101c5578886015182559484019460019091019084016101a6565b50858210156101e35787850151600019600388901b60f8161c191681555b5050505050600190811b01905550565b610635806102026000396000f3fe608060405234801561001057600080fd5b50600436106100935760003560e01c806376809ce31161006657806376809ce31461010357806395d89b411461010c578063a9059cbb14610114578063dd62ed3e14610127578063e3d670d71461015257600080fd5b806306fdde0314610098578063095ea7b3146100b657806323b872dd146100d957806372dd529b146100ec575b600080fd5b6100a0610172565b6040516100ad9190610464565b60405180910390f35b6100c96100c43660046104ce565b610200565b60405190151581526020016100ad565b6100c96100e73660046104f8565b61026d565b6100f560025481565b6040519081526020016100ad565b6100f560035481565b6100a06103ad565b6100c96101223660046104ce565b6103ba565b6100f5610135366004610534565b600560209081526000928352604080842090915290825290205481565b6100f5610160366004610567565b60046020526000908152604090205481565b6000805461017f90610589565b80601f01602080910402602001604051908101604052809291908181526020018280546101ab90610589565b80156101f85780601f106101cd576101008083540402835291602001916101f8565b820191906000526020600020905b8154815290600101906020018083116101db57829003601f168201915b505050505081565b3360008181526005602090815260408083206001600160a01b038716808552925280832085905551919290917f6e11fb1b7f119e3f2fa29896ef5fdf8b8a2d0d4df6fe90ba8668e7d8b2ffa25e9061025b9086815260200190565b60405180910390a35060015b92915050565b6001600160a01b03831660009081526004602052604081205482111561029257600080fd5b6001600160a01b03841660009081526005602090815260408083203384529091529020548211156102c257600080fd5b6001600160a01b038416600090815260046020526040812080548492906102ea9084906105d9565b90915550506001600160a01b038316600090815260046020526040812080548492906103179084906105ec565b90915550506001600160a01b03841660009081526005602090815260408083203384529091528120805484929061034f9084906105d9565b92505081905550826001600160a01b0316846001600160a01b03167fddf252ad1be2c89b69c2b068fc378daa952ba7f163c4a11628f55a4df523b3ef8460405161039b91815260200190565b60405180910390a35060019392505050565b6001805461017f90610589565b336000908152600460205260408120548211156103d657600080fd5b33600090815260046020526040812080548492906103f59084906105d9565b90915550506001600160a01b038316600090815260046020526040812080548492906104229084906105ec565b90915550506040518281526001600160a01b0384169033907fddf252ad1be2c89b69c2b068fc378daa952ba7f163c4a11628f55a4df523b3ef9060200161025b565b600060208083528351808285015260005b8181101561049157858101830151858201604001528201610475565b506000604082860101526040601f19601f8301168501019250505092915050565b80356001600160a01b03811681146104c957600080fd5b919050565b600080604083850312156104e157600080fd5b6104ea836104b2565b946020939093013593505050565b60008060006060848603121561050d57600080fd5b610516846104b2565b9250610524602085016104b2565b9150604084013590509250925092565b6000806040838503121561054757600080fd5b610550836104b2565b915061055e602084016104b2565b90509250929050565b60006020828403121561057957600080fd5b610582826104b2565b9392505050565b600181811c9082168061059d57607f821691505b6020821081036105bd57634e487b7160e01b600052602260045260246000fd5b50919050565b634e487b7160e01b600052601160045260246000fd5b81810381811115610267576102676105c3565b80820180821115610267576102676105c356fea26469706673582212209e36f74ad20411f3119e645bd9da45883c865928b5d70cccad93a3bbb56c50b064736f6c63430008130033",
    "sourcePath": "c:/Users/maxim/staking_dapp/src/contracts/Tether_Token.sol",
    "compiler": {
        "name": "solc",
        "version": "0.8.19+commit.7dd6d404"
    },
    "functionHashes": {
        "allowance(address,address)": "dd62ed3e",
        "approve(address,uint256)": "095ea7b3",
        "balance(address)": "e3d670d7",
        "decimal()": "76809ce3",
        "name()": "06fdde03",
        "symbol()": "95d89b41",
        "totalsupply()": "72dd529b",
        "transfer(address,uint256)": "a9059cbb",
        "transferFrom(address,address,uint256)": "23b872dd"
    },
    "gasEstimates": {
        "creation": {
            "codeDepositCost": "317800",
            "executionCost": "infinite",
            "totalCost": "infinite"
        },
        "external": {
            "allowance(address,address)": "infinite",
            "approve(address,uint256)": "24523",
            "balance(address)": "2607",
            "decimal()": "2295",
            "name()": "infinite",
            "symbol()": "infinite",
            "totalsupply()": "2362",
            "transfer(address,uint256)": "infinite",
            "transferFrom(address,address,uint256)": "infinite"
        }
    }
}